{
  "contractName": "Market",
  "abi": [
    {
      "inputs": [
        {
          "internalType": "address",
          "name": "SuCoinAddr",
          "type": "address"
        }
      ],
      "stateMutability": "nonpayable",
      "type": "constructor"
    },
    {
      "inputs": [
        {
          "internalType": "address",
          "name": "",
          "type": "address"
        },
        {
          "internalType": "uint256",
          "name": "",
          "type": "uint256"
        }
      ],
      "name": "AuctionData",
      "outputs": [
        {
          "internalType": "uint8",
          "name": "auctType",
          "type": "uint8"
        },
        {
          "internalType": "uint256",
          "name": "price",
          "type": "uint256"
        },
        {
          "internalType": "uint256",
          "name": "timer",
          "type": "uint256"
        },
        {
          "internalType": "address",
          "name": "winner",
          "type": "address"
        },
        {
          "internalType": "address",
          "name": "oldOwner",
          "type": "address"
        }
      ],
      "stateMutability": "view",
      "type": "function",
      "constant": true
    },
    {
      "inputs": [],
      "name": "MarketOwner",
      "outputs": [
        {
          "internalType": "address",
          "name": "",
          "type": "address"
        }
      ],
      "stateMutability": "view",
      "type": "function",
      "constant": true
    },
    {
      "inputs": [
        {
          "internalType": "address",
          "name": "",
          "type": "address"
        }
      ],
      "name": "UserData",
      "outputs": [
        {
          "internalType": "uint256",
          "name": "balance",
          "type": "uint256"
        }
      ],
      "stateMutability": "view",
      "type": "function",
      "constant": true
    },
    {
      "inputs": [],
      "name": "suCoinAddress",
      "outputs": [
        {
          "internalType": "address",
          "name": "",
          "type": "address"
        }
      ],
      "stateMutability": "view",
      "type": "function",
      "constant": true
    },
    {
      "inputs": [
        {
          "internalType": "address",
          "name": "nftAddr",
          "type": "address"
        },
        {
          "internalType": "uint256",
          "name": "nftID",
          "type": "uint256"
        }
      ],
      "name": "deposit",
      "outputs": [],
      "stateMutability": "payable",
      "type": "function",
      "payable": true
    },
    {
      "inputs": [
        {
          "internalType": "address",
          "name": "nftAddr",
          "type": "address"
        },
        {
          "internalType": "uint256",
          "name": "nftID",
          "type": "uint256"
        }
      ],
      "name": "withdraw",
      "outputs": [],
      "stateMutability": "payable",
      "type": "function",
      "payable": true
    },
    {
      "inputs": [
        {
          "internalType": "uint256",
          "name": "amount",
          "type": "uint256"
        }
      ],
      "name": "depositBalance",
      "outputs": [],
      "stateMutability": "payable",
      "type": "function",
      "payable": true
    },
    {
      "inputs": [
        {
          "internalType": "uint256",
          "name": "amount",
          "type": "uint256"
        }
      ],
      "name": "withdrawBalance",
      "outputs": [],
      "stateMutability": "payable",
      "type": "function",
      "payable": true
    },
    {
      "inputs": [
        {
          "internalType": "address",
          "name": "nftAddr",
          "type": "address"
        },
        {
          "internalType": "uint256",
          "name": "nftID",
          "type": "uint256"
        },
        {
          "internalType": "uint256",
          "name": "startingPrice",
          "type": "uint256"
        }
      ],
      "name": "startAuction",
      "outputs": [],
      "stateMutability": "nonpayable",
      "type": "function"
    },
    {
      "inputs": [
        {
          "internalType": "address",
          "name": "nftAddr",
          "type": "address"
        },
        {
          "internalType": "uint256",
          "name": "nftID",
          "type": "uint256"
        },
        {
          "internalType": "uint256",
          "name": "price",
          "type": "uint256"
        }
      ],
      "name": "bid",
      "outputs": [],
      "stateMutability": "payable",
      "type": "function",
      "payable": true
    },
    {
      "inputs": [
        {
          "internalType": "address",
          "name": "nftAddr",
          "type": "address"
        },
        {
          "internalType": "uint256",
          "name": "nftID",
          "type": "uint256"
        }
      ],
      "name": "endAuction",
      "outputs": [],
      "stateMutability": "nonpayable",
      "type": "function"
    },
    {
      "inputs": [
        {
          "internalType": "address",
          "name": "nftAddr",
          "type": "address"
        },
        {
          "internalType": "uint256",
          "name": "nftID",
          "type": "uint256"
        },
        {
          "internalType": "uint256",
          "name": "amount",
          "type": "uint256"
        }
      ],
      "name": "sellRegular",
      "outputs": [],
      "stateMutability": "nonpayable",
      "type": "function"
    },
    {
      "inputs": [
        {
          "internalType": "address",
          "name": "nftAddr",
          "type": "address"
        },
        {
          "internalType": "uint256",
          "name": "nftID",
          "type": "uint256"
        }
      ],
      "name": "buyRegular",
      "outputs": [],
      "stateMutability": "nonpayable",
      "type": "function"
    },
    {
      "inputs": [],
      "name": "getMarketBalance",
      "outputs": [
        {
          "internalType": "uint256",
          "name": "",
          "type": "uint256"
        }
      ],
      "stateMutability": "view",
      "type": "function",
      "constant": true
    },
    {
      "inputs": [
        {
          "internalType": "address",
          "name": "tokenAddr",
          "type": "address"
        },
        {
          "internalType": "uint256",
          "name": "tokenId",
          "type": "uint256"
        }
      ],
      "name": "getUserNftBalance",
      "outputs": [
        {
          "internalType": "bool",
          "name": "",
          "type": "bool"
        }
      ],
      "stateMutability": "view",
      "type": "function",
      "constant": true
    },
    {
      "inputs": [
        {
          "internalType": "address",
          "name": "tokenAddr",
          "type": "address"
        },
        {
          "internalType": "uint256",
          "name": "tokenId",
          "type": "uint256"
        }
      ],
      "name": "getAuctionInfoPrice",
      "outputs": [
        {
          "internalType": "uint256",
          "name": "",
          "type": "uint256"
        }
      ],
      "stateMutability": "view",
      "type": "function",
      "constant": true
    },
    {
      "inputs": [
        {
          "internalType": "address",
          "name": "tokenAddr",
          "type": "address"
        },
        {
          "internalType": "uint256",
          "name": "tokenId",
          "type": "uint256"
        }
      ],
      "name": "getAuctionInfoTimer",
      "outputs": [
        {
          "internalType": "uint256",
          "name": "",
          "type": "uint256"
        }
      ],
      "stateMutability": "view",
      "type": "function",
      "constant": true
    },
    {
      "inputs": [
        {
          "internalType": "address",
          "name": "tokenAddr",
          "type": "address"
        },
        {
          "internalType": "uint256",
          "name": "tokenId",
          "type": "uint256"
        }
      ],
      "name": "getAuctionInfoWinner",
      "outputs": [
        {
          "internalType": "address",
          "name": "",
          "type": "address"
        }
      ],
      "stateMutability": "view",
      "type": "function",
      "constant": true
    },
    {
      "inputs": [
        {
          "internalType": "address",
          "name": "tokenAddr",
          "type": "address"
        },
        {
          "internalType": "uint256",
          "name": "tokenId",
          "type": "uint256"
        }
      ],
      "name": "getAuctionInfoOldOwner",
      "outputs": [
        {
          "internalType": "address",
          "name": "",
          "type": "address"
        }
      ],
      "stateMutability": "view",
      "type": "function",
      "constant": true
    }
  ],
  "bytecode": "0x608060405273eb63b42b7838550e65db1c803a427f5383145a556000806101000a81548173ffffffffffffffffffffffffffffffffffffffff021916908373ffffffffffffffffffffffffffffffffffffffff1602179055503480156200006557600080fd5b506040516200335e3803806200335e83398181016040528101906200008b91906200013d565b80600160006101000a81548173ffffffffffffffffffffffffffffffffffffffff021916908373ffffffffffffffffffffffffffffffffffffffff160217905550506200016f565b600080fd5b600073ffffffffffffffffffffffffffffffffffffffff82169050919050565b60006200010582620000d8565b9050919050565b6200011781620000f8565b81146200012357600080fd5b50565b60008151905062000137816200010c565b92915050565b600060208284031215620001565762000155620000d3565b5b6000620001668482850162000126565b91505092915050565b6131df806200017f6000396000f3fe6080604052600436106101145760003560e01c806356dd4755116100a0578063964eec7011610064578063964eec70146103985780639907e0ab146103c3578063da76d5cd14610400578063f3fef3a31461041c578063fdc0b4211461043857610114565b806356dd4755146102c9578063599b37d0146102f25780636255de201461031d57806388cedbc4146103465780638cdccff91461036f57610114565b80634053b425116100e75780634053b425146101b957806343c03913146101f657806347e7ef2414610233578063492a0e051461024f57806349457f5d1461028c57610114565b80630f41ba4b146101195780631ec57634146101355780631eed46861461015157806329b72a451461018e575b600080fd5b610133600480360381019061012e9190612a2c565b610479565b005b61014f600480360381019061014a9190612a7f565b610c4e565b005b34801561015d57600080fd5b5061017860048036038101906101739190612aac565b610d53565b6040516101859190612afb565b60405180910390f35b34801561019a57600080fd5b506101a3610dd1565b6040516101b09190612afb565b60405180910390f35b3480156101c557600080fd5b506101e060048036038101906101db9190612aac565b610df7565b6040516101ed9190612b31565b60405180910390f35b34801561020257600080fd5b5061021d60048036038101906102189190612aac565b610e9f565b60405161022a9190612afb565b60405180910390f35b61024d60048036038101906102489190612aac565b610f1d565b005b34801561025b57600080fd5b5061027660048036038101906102719190612aac565b6110f0565b6040516102839190612b5b565b60405180910390f35b34801561029857600080fd5b506102b360048036038101906102ae9190612aac565b61114e565b6040516102c09190612b5b565b60405180910390f35b3480156102d557600080fd5b506102f060048036038101906102eb9190612a2c565b6111ac565b005b3480156102fe57600080fd5b506103076115e8565b6040516103149190612afb565b60405180910390f35b34801561032957600080fd5b50610344600480360381019061033f9190612aac565b61160c565b005b34801561035257600080fd5b5061036d60048036038101906103689190612aac565b611c04565b005b34801561037b57600080fd5b5061039660048036038101906103919190612a2c565b6121eb565b005b3480156103a457600080fd5b506103ad61249b565b6040516103ba9190612b5b565b60405180910390f35b3480156103cf57600080fd5b506103ea60048036038101906103e59190612b76565b6124e5565b6040516103f79190612b5b565b60405180910390f35b61041a60048036038101906104159190612a7f565b612503565b005b61043660048036038101906104319190612aac565b612655565b005b34801561044457600080fd5b5061045f600480360381019061045a9190612aac565b612903565b604051610470959493929190612bbf565b60405180910390f35b6001600360008573ffffffffffffffffffffffffffffffffffffffff1673ffffffffffffffffffffffffffffffffffffffff168152602001908152602001600020600084815260200190815260200160002060000160009054906101000a900460ff1660ff16146104e957600080fd5b42600360008573ffffffffffffffffffffffffffffffffffffffff1673ffffffffffffffffffffffffffffffffffffffff168152602001908152602001600020600084815260200190815260200160002060020154101561057f576040517f08c379a000000000000000000000000000000000000000000000000000000000815260040161057690612c6f565b60405180910390fd5b600360008473ffffffffffffffffffffffffffffffffffffffff1673ffffffffffffffffffffffffffffffffffffffff168152602001908152602001600020600083815260200190815260200160002060040160009054906101000a900473ffffffffffffffffffffffffffffffffffffffff1673ffffffffffffffffffffffffffffffffffffffff163373ffffffffffffffffffffffffffffffffffffffff161415610661576040517f08c379a000000000000000000000000000000000000000000000000000000000815260040161065890612cdb565b60405180910390fd5b80600260003373ffffffffffffffffffffffffffffffffffffffff1673ffffffffffffffffffffffffffffffffffffffff1681526020019081526020016000206001015410156106e6576040517f08c379a00000000000000000000000000000000000000000000000000000000081526004016106dd90612d6d565b60405180910390fd5b600360008473ffffffffffffffffffffffffffffffffffffffff1673ffffffffffffffffffffffffffffffffffffffff168152602001908152602001600020600083815260200190815260200160002060010154600a826107479190612dbc565b1015610788576040517f08c379a000000000000000000000000000000000000000000000000000000000815260040161077f90612e62565b60405180910390fd5b60026000600360008673ffffffffffffffffffffffffffffffffffffffff1673ffffffffffffffffffffffffffffffffffffffff168152602001908152602001600020600085815260200190815260200160002060030160009054906101000a900473ffffffffffffffffffffffffffffffffffffffff1673ffffffffffffffffffffffffffffffffffffffff1673ffffffffffffffffffffffffffffffffffffffff16815260200190815260200160002060000160008473ffffffffffffffffffffffffffffffffffffffff1673ffffffffffffffffffffffffffffffffffffffff168152602001908152602001600020600083815260200190815260200160002060009054906101000a900460ff16156109e65780600260003373ffffffffffffffffffffffffffffffffffffffff1673ffffffffffffffffffffffffffffffffffffffff16815260200190815260200160002060010160008282546108f09190612dbc565b9250508190555080600360008573ffffffffffffffffffffffffffffffffffffffff1673ffffffffffffffffffffffffffffffffffffffff16815260200190815260200160002060008481526020019081526020016000206001018190555033600360008573ffffffffffffffffffffffffffffffffffffffff1673ffffffffffffffffffffffffffffffffffffffff168152602001908152602001600020600084815260200190815260200160002060030160006101000a81548173ffffffffffffffffffffffffffffffffffffffff021916908373ffffffffffffffffffffffffffffffffffffffff160217905550610c49565b80600260003373ffffffffffffffffffffffffffffffffffffffff1673ffffffffffffffffffffffffffffffffffffffff1681526020019081526020016000206001016000828254610a389190612dbc565b92505081905550600360008473ffffffffffffffffffffffffffffffffffffffff1673ffffffffffffffffffffffffffffffffffffffff16815260200190815260200160002060008381526020019081526020016000206001015460026000600360008773ffffffffffffffffffffffffffffffffffffffff1673ffffffffffffffffffffffffffffffffffffffff168152602001908152602001600020600086815260200190815260200160002060030160009054906101000a900473ffffffffffffffffffffffffffffffffffffffff1673ffffffffffffffffffffffffffffffffffffffff1673ffffffffffffffffffffffffffffffffffffffff1681526020019081526020016000206001016000828254610b579190612e82565b9250508190555080600360008573ffffffffffffffffffffffffffffffffffffffff1673ffffffffffffffffffffffffffffffffffffffff16815260200190815260200160002060008481526020019081526020016000206001018190555033600360008573ffffffffffffffffffffffffffffffffffffffff1673ffffffffffffffffffffffffffffffffffffffff168152602001908152602001600020600084815260200190815260200160002060030160006101000a81548173ffffffffffffffffffffffffffffffffffffffff021916908373ffffffffffffffffffffffffffffffffffffffff1602179055505b505050565b6000600160009054906101000a900473ffffffffffffffffffffffffffffffffffffffff1690508073ffffffffffffffffffffffffffffffffffffffff166323b872dd3330856040518463ffffffff1660e01b8152600401610cb293929190612ed8565b6020604051808303816000875af1158015610cd1573d6000803e3d6000fd5b505050506040513d601f19601f82011682018060405250810190610cf59190612f3b565b5081600260003373ffffffffffffffffffffffffffffffffffffffff1673ffffffffffffffffffffffffffffffffffffffff1681526020019081526020016000206001016000828254610d489190612e82565b925050819055505050565b6000600360008473ffffffffffffffffffffffffffffffffffffffff1673ffffffffffffffffffffffffffffffffffffffff168152602001908152602001600020600083815260200190815260200160002060030160009054906101000a900473ffffffffffffffffffffffffffffffffffffffff16905092915050565b600160009054906101000a900473ffffffffffffffffffffffffffffffffffffffff1681565b6000600260003373ffffffffffffffffffffffffffffffffffffffff1673ffffffffffffffffffffffffffffffffffffffff16815260200190815260200160002060000160008473ffffffffffffffffffffffffffffffffffffffff1673ffffffffffffffffffffffffffffffffffffffff168152602001908152602001600020600083815260200190815260200160002060009054906101000a900460ff16905092915050565b6000600360008473ffffffffffffffffffffffffffffffffffffffff1673ffffffffffffffffffffffffffffffffffffffff168152602001908152602001600020600083815260200190815260200160002060040160009054906101000a900473ffffffffffffffffffffffffffffffffffffffff16905092915050565b60008290503373ffffffffffffffffffffffffffffffffffffffff168173ffffffffffffffffffffffffffffffffffffffff16636352211e846040518263ffffffff1660e01b8152600401610f729190612b5b565b602060405180830381865afa158015610f8f573d6000803e3d6000fd5b505050506040513d601f19601f82011682018060405250810190610fb39190612f7d565b73ffffffffffffffffffffffffffffffffffffffff1614610fd357600080fd5b8073ffffffffffffffffffffffffffffffffffffffff166323b872dd3330856040518463ffffffff1660e01b815260040161101093929190612ed8565b600060405180830381600087803b15801561102a57600080fd5b505af115801561103e573d6000803e3d6000fd5b505050506001600260003373ffffffffffffffffffffffffffffffffffffffff1673ffffffffffffffffffffffffffffffffffffffff16815260200190815260200160002060000160008573ffffffffffffffffffffffffffffffffffffffff1673ffffffffffffffffffffffffffffffffffffffff168152602001908152602001600020600084815260200190815260200160002060006101000a81548160ff021916908315150217905550505050565b6000600360008473ffffffffffffffffffffffffffffffffffffffff1673ffffffffffffffffffffffffffffffffffffffff168152602001908152602001600020600083815260200190815260200160002060010154905092915050565b6000600360008473ffffffffffffffffffffffffffffffffffffffff1673ffffffffffffffffffffffffffffffffffffffff168152602001908152602001600020600083815260200190815260200160002060020154905092915050565b6000600360008573ffffffffffffffffffffffffffffffffffffffff1673ffffffffffffffffffffffffffffffffffffffff168152602001908152602001600020600084815260200190815260200160002060000160009054906101000a900460ff1660ff161461121c57600080fd5b60011515600260003373ffffffffffffffffffffffffffffffffffffffff1673ffffffffffffffffffffffffffffffffffffffff16815260200190815260200160002060000160008573ffffffffffffffffffffffffffffffffffffffff1673ffffffffffffffffffffffffffffffffffffffff168152602001908152602001600020600084815260200190815260200160002060009054906101000a900460ff16151514611300576040517f08c379a00000000000000000000000000000000000000000000000000000000081526004016112f790612ff6565b60405180910390fd5b42600360008573ffffffffffffffffffffffffffffffffffffffff1673ffffffffffffffffffffffffffffffffffffffff16815260200190815260200160002060008481526020019081526020016000206002015410611395576040517f08c379a000000000000000000000000000000000000000000000000000000000815260040161138c90613088565b60405180910390fd5b33600360008573ffffffffffffffffffffffffffffffffffffffff1673ffffffffffffffffffffffffffffffffffffffff168152602001908152602001600020600084815260200190815260200160002060040160006101000a81548173ffffffffffffffffffffffffffffffffffffffff021916908373ffffffffffffffffffffffffffffffffffffffff160217905550610e10426114359190612e82565b600360008573ffffffffffffffffffffffffffffffffffffffff1673ffffffffffffffffffffffffffffffffffffffff16815260200190815260200160002060008481526020019081526020016000206002018190555080600360008573ffffffffffffffffffffffffffffffffffffffff1673ffffffffffffffffffffffffffffffffffffffff16815260200190815260200160002060008481526020019081526020016000206001018190555033600360008573ffffffffffffffffffffffffffffffffffffffff1673ffffffffffffffffffffffffffffffffffffffff168152602001908152602001600020600084815260200190815260200160002060030160006101000a81548173ffffffffffffffffffffffffffffffffffffffff021916908373ffffffffffffffffffffffffffffffffffffffff1602179055506001600360008573ffffffffffffffffffffffffffffffffffffffff1673ffffffffffffffffffffffffffffffffffffffff168152602001908152602001600020600084815260200190815260200160002060000160006101000a81548160ff021916908360ff160217905550505050565b60008054906101000a900473ffffffffffffffffffffffffffffffffffffffff1681565b6002600360008473ffffffffffffffffffffffffffffffffffffffff1673ffffffffffffffffffffffffffffffffffffffff168152602001908152602001600020600083815260200190815260200160002060000160009054906101000a900460ff1660ff161461167c57600080fd5b60011515600260003373ffffffffffffffffffffffffffffffffffffffff1673ffffffffffffffffffffffffffffffffffffffff16815260200190815260200160002060000160008473ffffffffffffffffffffffffffffffffffffffff1673ffffffffffffffffffffffffffffffffffffffff168152602001908152602001600020600083815260200190815260200160002060009054906101000a900460ff1615151415611761576040517f08c379a0000000000000000000000000000000000000000000000000000000008152600401611758906130f4565b60405180910390fd5b600260003373ffffffffffffffffffffffffffffffffffffffff1673ffffffffffffffffffffffffffffffffffffffff16815260200190815260200160002060010154600360008473ffffffffffffffffffffffffffffffffffffffff1673ffffffffffffffffffffffffffffffffffffffff168152602001908152602001600020600083815260200190815260200160002060010154111561180357600080fd5b600360008373ffffffffffffffffffffffffffffffffffffffff1673ffffffffffffffffffffffffffffffffffffffff168152602001908152602001600020600082815260200190815260200160002060010154600260003373ffffffffffffffffffffffffffffffffffffffff1673ffffffffffffffffffffffffffffffffffffffff16815260200190815260200160002060010160008282546118a89190612dbc565b92505081905550600360008373ffffffffffffffffffffffffffffffffffffffff1673ffffffffffffffffffffffffffffffffffffffff16815260200190815260200160002060008281526020019081526020016000206001015460026000600360008673ffffffffffffffffffffffffffffffffffffffff1673ffffffffffffffffffffffffffffffffffffffff168152602001908152602001600020600085815260200190815260200160002060040160009054906101000a900473ffffffffffffffffffffffffffffffffffffffff1673ffffffffffffffffffffffffffffffffffffffff1673ffffffffffffffffffffffffffffffffffffffff16815260200190815260200160002060010160008282546119c79190612e82565b92505081905550600060026000600360008673ffffffffffffffffffffffffffffffffffffffff1673ffffffffffffffffffffffffffffffffffffffff168152602001908152602001600020600085815260200190815260200160002060040160009054906101000a900473ffffffffffffffffffffffffffffffffffffffff1673ffffffffffffffffffffffffffffffffffffffff1673ffffffffffffffffffffffffffffffffffffffff16815260200190815260200160002060000160008473ffffffffffffffffffffffffffffffffffffffff1673ffffffffffffffffffffffffffffffffffffffff168152602001908152602001600020600083815260200190815260200160002060006101000a81548160ff0219169083151502179055506001600260003373ffffffffffffffffffffffffffffffffffffffff1673ffffffffffffffffffffffffffffffffffffffff16815260200190815260200160002060000160008473ffffffffffffffffffffffffffffffffffffffff1673ffffffffffffffffffffffffffffffffffffffff168152602001908152602001600020600083815260200190815260200160002060006101000a81548160ff0219169083151502179055506000600360008473ffffffffffffffffffffffffffffffffffffffff1673ffffffffffffffffffffffffffffffffffffffff168152602001908152602001600020600083815260200190815260200160002060000160006101000a81548160ff021916908360ff1602179055505050565b6001600360008473ffffffffffffffffffffffffffffffffffffffff1673ffffffffffffffffffffffffffffffffffffffff168152602001908152602001600020600083815260200190815260200160002060000160009054906101000a900460ff1660ff1614611c7457600080fd5b42600360008473ffffffffffffffffffffffffffffffffffffffff1673ffffffffffffffffffffffffffffffffffffffff16815260200190815260200160002060008381526020019081526020016000206002015410611d09576040517f08c379a0000000000000000000000000000000000000000000000000000000008152600401611d0090613160565b60405180910390fd5b600360008373ffffffffffffffffffffffffffffffffffffffff1673ffffffffffffffffffffffffffffffffffffffff168152602001908152602001600020600082815260200190815260200160002060030160009054906101000a900473ffffffffffffffffffffffffffffffffffffffff1673ffffffffffffffffffffffffffffffffffffffff16600360008473ffffffffffffffffffffffffffffffffffffffff1673ffffffffffffffffffffffffffffffffffffffff168152602001908152602001600020600083815260200190815260200160002060040160009054906101000a900473ffffffffffffffffffffffffffffffffffffffff1673ffffffffffffffffffffffffffffffffffffffff16146121e757600060026000600360008673ffffffffffffffffffffffffffffffffffffffff1673ffffffffffffffffffffffffffffffffffffffff168152602001908152602001600020600085815260200190815260200160002060040160009054906101000a900473ffffffffffffffffffffffffffffffffffffffff1673ffffffffffffffffffffffffffffffffffffffff1673ffffffffffffffffffffffffffffffffffffffff16815260200190815260200160002060000160008473ffffffffffffffffffffffffffffffffffffffff1673ffffffffffffffffffffffffffffffffffffffff168152602001908152602001600020600083815260200190815260200160002060006101000a81548160ff021916908315150217905550600360008373ffffffffffffffffffffffffffffffffffffffff1673ffffffffffffffffffffffffffffffffffffffff16815260200190815260200160002060008281526020019081526020016000206001015460026000600360008673ffffffffffffffffffffffffffffffffffffffff1673ffffffffffffffffffffffffffffffffffffffff168152602001908152602001600020600085815260200190815260200160002060040160009054906101000a900473ffffffffffffffffffffffffffffffffffffffff1673ffffffffffffffffffffffffffffffffffffffff1673ffffffffffffffffffffffffffffffffffffffff16815260200190815260200160002060010160008282546120569190612e82565b92505081905550600160026000600360008673ffffffffffffffffffffffffffffffffffffffff1673ffffffffffffffffffffffffffffffffffffffff168152602001908152602001600020600085815260200190815260200160002060030160009054906101000a900473ffffffffffffffffffffffffffffffffffffffff1673ffffffffffffffffffffffffffffffffffffffff1673ffffffffffffffffffffffffffffffffffffffff16815260200190815260200160002060000160008473ffffffffffffffffffffffffffffffffffffffff1673ffffffffffffffffffffffffffffffffffffffff168152602001908152602001600020600083815260200190815260200160002060006101000a81548160ff0219169083151502179055506000600360008473ffffffffffffffffffffffffffffffffffffffff1673ffffffffffffffffffffffffffffffffffffffff168152602001908152602001600020600083815260200190815260200160002060000160006101000a81548160ff021916908360ff1602179055505b5050565b6000600360008573ffffffffffffffffffffffffffffffffffffffff1673ffffffffffffffffffffffffffffffffffffffff168152602001908152602001600020600084815260200190815260200160002060000160009054906101000a900460ff1660ff161461225b57600080fd5b60011515600260003373ffffffffffffffffffffffffffffffffffffffff1673ffffffffffffffffffffffffffffffffffffffff16815260200190815260200160002060000160008573ffffffffffffffffffffffffffffffffffffffff1673ffffffffffffffffffffffffffffffffffffffff168152602001908152602001600020600084815260200190815260200160002060009054906101000a900460ff1615151461233f576040517f08c379a000000000000000000000000000000000000000000000000000000000815260040161233690612ff6565b60405180910390fd5b33600360008573ffffffffffffffffffffffffffffffffffffffff1673ffffffffffffffffffffffffffffffffffffffff168152602001908152602001600020600084815260200190815260200160002060040160006101000a81548173ffffffffffffffffffffffffffffffffffffffff021916908373ffffffffffffffffffffffffffffffffffffffff16021790555080600360008573ffffffffffffffffffffffffffffffffffffffff1673ffffffffffffffffffffffffffffffffffffffff1681526020019081526020016000206000848152602001908152602001600020600101819055506002600360008573ffffffffffffffffffffffffffffffffffffffff1673ffffffffffffffffffffffffffffffffffffffff168152602001908152602001600020600084815260200190815260200160002060000160006101000a81548160ff021916908360ff160217905550505050565b6000600260003373ffffffffffffffffffffffffffffffffffffffff1673ffffffffffffffffffffffffffffffffffffffff16815260200190815260200160002060010154905090565b60026020528060005260406000206000915090508060010154905081565b6000600160009054906101000a900473ffffffffffffffffffffffffffffffffffffffff16905081600260003373ffffffffffffffffffffffffffffffffffffffff1673ffffffffffffffffffffffffffffffffffffffff16815260200190815260200160002060010154101561257957600080fd5b81600260003373ffffffffffffffffffffffffffffffffffffffff1673ffffffffffffffffffffffffffffffffffffffff16815260200190815260200160002060010160008282546125cb9190612dbc565b925050819055508073ffffffffffffffffffffffffffffffffffffffff1663a9059cbb33846040518363ffffffff1660e01b815260040161260d929190613180565b6020604051808303816000875af115801561262c573d6000803e3d6000fd5b505050506040513d601f19601f820116820180604052508101906126509190612f3b565b505050565b6000600360008473ffffffffffffffffffffffffffffffffffffffff1673ffffffffffffffffffffffffffffffffffffffff168152602001908152602001600020600083815260200190815260200160002060000160009054906101000a900460ff1660ff16148061272a57506002600360008473ffffffffffffffffffffffffffffffffffffffff1673ffffffffffffffffffffffffffffffffffffffff168152602001908152602001600020600083815260200190815260200160002060000160009054906101000a900460ff1660ff16145b61273357600080fd5b600082905060011515600260003373ffffffffffffffffffffffffffffffffffffffff1673ffffffffffffffffffffffffffffffffffffffff16815260200190815260200160002060000160008573ffffffffffffffffffffffffffffffffffffffff1673ffffffffffffffffffffffffffffffffffffffff168152602001908152602001600020600084815260200190815260200160002060009054906101000a900460ff161515146127e657600080fd5b6000600260003373ffffffffffffffffffffffffffffffffffffffff1673ffffffffffffffffffffffffffffffffffffffff16815260200190815260200160002060000160008573ffffffffffffffffffffffffffffffffffffffff1673ffffffffffffffffffffffffffffffffffffffff168152602001908152602001600020600084815260200190815260200160002060006101000a81548160ff0219169083151502179055508073ffffffffffffffffffffffffffffffffffffffff166323b872dd3033856040518463ffffffff1660e01b81526004016128cc93929190612ed8565b600060405180830381600087803b1580156128e657600080fd5b505af11580156128fa573d6000803e3d6000fd5b50505050505050565b6003602052816000526040600020602052806000526040600020600091509150508060000160009054906101000a900460ff16908060010154908060020154908060030160009054906101000a900473ffffffffffffffffffffffffffffffffffffffff16908060040160009054906101000a900473ffffffffffffffffffffffffffffffffffffffff16905085565b600080fd5b600073ffffffffffffffffffffffffffffffffffffffff82169050919050565b60006129c382612998565b9050919050565b6129d3816129b8565b81146129de57600080fd5b50565b6000813590506129f0816129ca565b92915050565b6000819050919050565b612a09816129f6565b8114612a1457600080fd5b50565b600081359050612a2681612a00565b92915050565b600080600060608486031215612a4557612a44612993565b5b6000612a53868287016129e1565b9350506020612a6486828701612a17565b9250506040612a7586828701612a17565b9150509250925092565b600060208284031215612a9557612a94612993565b5b6000612aa384828501612a17565b91505092915050565b60008060408385031215612ac357612ac2612993565b5b6000612ad1858286016129e1565b9250506020612ae285828601612a17565b9150509250929050565b612af5816129b8565b82525050565b6000602082019050612b106000830184612aec565b92915050565b60008115159050919050565b612b2b81612b16565b82525050565b6000602082019050612b466000830184612b22565b92915050565b612b55816129f6565b82525050565b6000602082019050612b706000830184612b4c565b92915050565b600060208284031215612b8c57612b8b612993565b5b6000612b9a848285016129e1565b91505092915050565b600060ff82169050919050565b612bb981612ba3565b82525050565b600060a082019050612bd46000830188612bb0565b612be16020830187612b4c565b612bee6040830186612b4c565b612bfb6060830185612aec565b612c086080830184612aec565b9695505050505050565b600082825260208201905092915050565b7f746869732061756374696f6e20656e6465640000000000000000000000000000600082015250565b6000612c59601283612c12565b9150612c6482612c23565b602082019050919050565b60006020820190508181036000830152612c8881612c4c565b9050919050565b7f6f776e65722063616e206e6f7420626964000000000000000000000000000000600082015250565b6000612cc5601183612c12565b9150612cd082612c8f565b602082019050919050565b60006020820190508181036000830152612cf481612cb8565b9050919050565b7f796f7520646f6e74206861766520656e6f75676820746f6b656e73206465706f60008201527f7369746564000000000000000000000000000000000000000000000000000000602082015250565b6000612d57602583612c12565b9150612d6282612cfb565b604082019050919050565b60006020820190508181036000830152612d8681612d4a565b9050919050565b7f4e487b7100000000000000000000000000000000000000000000000000000000600052601160045260246000fd5b6000612dc7826129f6565b9150612dd2836129f6565b925082821015612de557612de4612d8d565b5b828203905092915050565b7f6174206c65617374203130206d6f7265207375436f696e73207468616e20746860008201527f65206c6173742062696420617265206e65656465640000000000000000000000602082015250565b6000612e4c603583612c12565b9150612e5782612df0565b604082019050919050565b60006020820190508181036000830152612e7b81612e3f565b9050919050565b6000612e8d826129f6565b9150612e98836129f6565b9250827fffffffffffffffffffffffffffffffffffffffffffffffffffffffffffffffff03821115612ecd57612ecc612d8d565b5b828201905092915050565b6000606082019050612eed6000830186612aec565b612efa6020830185612aec565b612f076040830184612b4c565b949350505050565b612f1881612b16565b8114612f2357600080fd5b50565b600081519050612f3581612f0f565b92915050565b600060208284031215612f5157612f50612993565b5b6000612f5f84828501612f26565b91505092915050565b600081519050612f77816129ca565b92915050565b600060208284031215612f9357612f92612993565b5b6000612fa184828501612f68565b91505092915050565b7f796f7520646f6e74206f776e2074686973204e46540000000000000000000000600082015250565b6000612fe0601583612c12565b9150612feb82612faa565b602082019050919050565b6000602082019050818103600083015261300f81612fd3565b9050919050565b7f63757272656e746c79206f6e2061756374696f6e202c2074686973206d65737360008201527f6167652073686f756c64206e65766572206265207365656e2021000000000000602082015250565b6000613072603a83612c12565b915061307d82613016565b604082019050919050565b600060208201905081810360008301526130a181613065565b9050919050565b7f796f7520616c7265616479206f776e2074686973204e46540000000000000000600082015250565b60006130de601883612c12565b91506130e9826130a8565b602082019050919050565b6000602082019050818103600083015261310d816130d1565b9050919050565b7f74696d657220686173206e6f742072616e206f7574207965742e000000000000600082015250565b600061314a601a83612c12565b915061315582613114565b602082019050919050565b600060208201905081810360008301526131798161313d565b9050919050565b60006040820190506131956000830185612aec565b6131a26020830184612b4c565b939250505056fea2646970667358221220f1ada4f147f009208b4e371b89fd85a6ef6d738e51b9da979fe8c1d20f734b5564736f6c634300080a0033",
  "immutableReferences": {},
  "source": "// SPDX-License-Identifier: MIT\r\npragma solidity ^0.8.4;\r\n\r\nimport \"@openzeppelin/contracts/token/ERC721/ERC721.sol\";\r\nimport \"@openzeppelin/contracts/access/Ownable.sol\";\r\nimport \"@openzeppelin/contracts/token/ERC20/ERC20.sol\";\r\ncontract NonFungibleToken is ERC721, Ownable {\r\n    constructor() ERC721(\"NonFungibleToken\", \"NFT\") {}\r\n\r\n    function safeMint(address to, uint256 tokenId) public onlyOwner {\r\n        _safeMint(to, tokenId);\r\n    }\r\n}\r\n\r\ncontract SUcoin is ERC20{\r\n    constructor() ERC20(\"suCoin\", \"SU\") {\r\n        _mint(msg.sender, 100000);\r\n    }\r\n}\r\n\r\ncontract Market{\r\n\r\n    struct userData{\r\n        mapping(address=>mapping(uint256=>bool)) own; //NFT balance in market.\r\n        uint256 balance; // balance in SUcoin\r\n        \r\n    }\r\n    struct auctionInfo{\r\n        uint8 auctType; // 0- on market only 1- on auction 2- on regular sale\r\n\r\n        uint256 price; // price is set by owner of NFT.\r\n\r\n        uint256 timer; // if timer > block.timestamp auction has ended.\r\n\r\n        address winner; // winner is set as owner at start. Changes according to auction.\r\n\r\n        address oldOwner; // set as old owner.\r\n    }\r\n\r\n    address public MarketOwner = address(0xEB63B42b7838550E65dB1c803a427F5383145a55); // DAO address comes here.\r\n    address public suCoinAddress;\r\n    mapping(address => userData) public UserData; // holds users info. (nft's balance etc.)\r\n    mapping(address=> mapping(uint256 => auctionInfo)) public AuctionData; // holds auctions info (which nft is on auction etc.)\r\n\r\n    constructor(address SuCoinAddr){\r\n        suCoinAddress = SuCoinAddr;\r\n    }\r\n/**\r\n * @dev \r\n * deposit function for NFT's, \r\n * requires the sender to be the owner of the NFT, it also requires\r\n * the owner to approve the NFT transfer to this contract \r\n * beforehand.\r\n */\r\n    function deposit(address nftAddr, uint256 nftID) public payable{\r\n        NonFungibleToken userToken = NonFungibleToken(nftAddr);\r\n        // requires the owner of the token to be the sender\r\n        require(userToken.ownerOf(nftID) == msg.sender); \r\n        userToken.transferFrom(msg.sender,address(this),nftID);\r\n        UserData[msg.sender].own[nftAddr][nftID] = true;\r\n    }\r\n/**\r\n * @dev \r\n * withdraw function for NFT's, \r\n * requires the sender to be the owner of the NFT ON THE MARKET, \r\n */\r\n    function withdraw(address nftAddr, uint256 nftID) public payable{\r\n        require(AuctionData[nftAddr][nftID].auctType == 0 || AuctionData[nftAddr][nftID].auctType == 2);\r\n        NonFungibleToken userToken = NonFungibleToken(nftAddr);\r\n        require(UserData[msg.sender].own[nftAddr][nftID] == true);\r\n        UserData[msg.sender].own[nftAddr][nftID] = false;\r\n        userToken.transferFrom(address(this),msg.sender,nftID);\r\n    }\r\n/**\r\n * @dev \r\n * Deposit function for SuCoin, \r\n * requires the sender to send the balance they enter.\r\n */\r\n    function depositBalance(uint256 amount) public payable{\r\n        SUcoin Sabancicoin = SUcoin(suCoinAddress);\r\n        //require is inside transferfrom.\r\n        Sabancicoin.transferFrom(msg.sender,address(this),amount);\r\n        UserData[msg.sender].balance += amount;\r\n    }\r\n/**\r\n * @dev \r\n * Withdraw function for SuCoin,  \r\n * requires the sender to have the balance in the market. \r\n */\r\n    function withdrawBalance(uint256 amount) public payable{\r\n        SUcoin Sabancicoin = SUcoin(suCoinAddress);\r\n        require(UserData[msg.sender].balance >= amount);\r\n        UserData[msg.sender].balance -= amount;\r\n        Sabancicoin.transfer(msg.sender,amount);\r\n    }\r\n\r\n    //AUCTION PART----------------------------\r\n/**\r\n * @dev \r\n * Starts auction for desired NFT, can only be started if the NFT is deposited to the contract.\r\n * the owner can set a starting price.\r\n * timer sets the auctions timer, default is 1 minute for testing purposes.\r\n * ONE BIG ISSUE !!!! can start auction right after the auction has finished, making the last auction useless. and basically making a user lose money. (adding a require statement to fix.)\r\n * maybe a feature tho ??\r\n */\r\n    function startAuction(address nftAddr, uint256 nftID,  uint256 startingPrice) public{\r\n        require(AuctionData[nftAddr][nftID].auctType == 0);\r\n        require(UserData[msg.sender].own[nftAddr][nftID] == true, \"you dont own this NFT\"); // must own nft and put it in the market... (on website maybe make it so it auto transfers and starts)\r\n        require(AuctionData[nftAddr][nftID].timer < block.timestamp, \"currently on auction , this message should never be seen !\"); // can not be currently on auction. (obselete )\r\n        AuctionData[nftAddr][nftID].oldOwner = msg.sender;\r\n        AuctionData[nftAddr][nftID].timer = block.timestamp + 3600;// unix time.\r\n        AuctionData[nftAddr][nftID].price = startingPrice;\r\n        AuctionData[nftAddr][nftID].winner = msg.sender; // winner is set as owner (default)\r\n        AuctionData[nftAddr][nftID].auctType = 1;\r\n    }\r\n/**\r\n * @dev \r\n * bids on desired NFT,\r\n * price must increase by 10 SUcoins otherwise it is not valid.\r\n * owner is allowed to bid on their own NFT.\r\n */   \r\n    function bid(address nftAddr,uint256 nftID,  uint256 price) public payable{\r\n        require(AuctionData[nftAddr][nftID].auctType == 1);\r\n        require(AuctionData[nftAddr][nftID].timer >= block.timestamp, \"this auction ended\");// auction is still going on.\r\n        require(msg.sender != AuctionData[nftAddr][nftID].oldOwner, \"owner can not bid\"); // user can not be NFT's old owner.\r\n        require(UserData[msg.sender].balance >= price, \"you dont have enough tokens deposited\");// user has to have that many tokens.\r\n        require(price - 10 >= AuctionData[nftAddr][nftID].price , \"at least 10 more suCoins than the last bid are needed\"); // at least 10 more SUcoin is needed for a proper bid.\r\n        if(UserData[AuctionData[nftAddr][nftID].winner].own[nftAddr][nftID]){// if the winner is owner ( the start of auction )\r\n        //so that no money is sent to the owner at the beginning\r\n            \r\n            UserData[msg.sender].balance -= price; // balance is reducted from the bidder.\r\n            AuctionData[nftAddr][nftID].price = price; // price is set as the new bid.\r\n            AuctionData[nftAddr][nftID].winner = msg.sender; // winner is set as the bidder.\r\n            \r\n        }\r\n        else{\r\n            UserData[msg.sender].balance -= price;// balance is reducted from current bidder.\r\n            UserData[AuctionData[nftAddr][nftID].winner].balance += AuctionData[nftAddr][nftID].price; // balance is returned to old bidder.\r\n            AuctionData[nftAddr][nftID].price = price; // price is set as new price\r\n            AuctionData[nftAddr][nftID].winner = msg.sender; // winner is set as sender.\r\n        }\r\n\r\n    }\r\n/**\r\n * @dev \r\n * finishes an auction, can be called by anyone, \r\n * winner receives the NFT, old owner receives the current bid.\r\n */   \r\n    function endAuction(address nftAddr, uint256 nftID)public{\r\n        require(AuctionData[nftAddr][nftID].auctType == 1);\r\n        require(AuctionData[nftAddr][nftID].timer < block.timestamp, \"timer has not ran out yet.\"); //auction has ended. block.timestamp has passed the timer.\r\n        \r\n        if(AuctionData[nftAddr][nftID].oldOwner != AuctionData[nftAddr][nftID].winner)\r\n        { // if auction had no bids, dont do anything.\r\n            UserData[AuctionData[nftAddr][nftID].oldOwner].own[nftAddr][nftID] = false;\r\n            UserData[AuctionData[nftAddr][nftID].oldOwner].balance += AuctionData[nftAddr][nftID].price; // winning bid is given to the NFT's old owner.\r\n            UserData[AuctionData[nftAddr][nftID].winner].own[nftAddr][nftID] = true;\r\n            AuctionData[nftAddr][nftID].auctType = 0;\r\n        }\r\n        \r\n    }\r\n    /** \r\n     * @dev\r\n     * regular sale part\r\n    */\r\n\r\n    function sellRegular(address nftAddr, uint256 nftID, uint256 amount)public{\r\n        require(AuctionData[nftAddr][nftID].auctType == 0);\r\n        require(UserData[msg.sender].own[nftAddr][nftID] == true, \"you dont own this NFT\"); //must be owner\r\n        AuctionData[nftAddr][nftID].oldOwner = msg.sender;\r\n        AuctionData[nftAddr][nftID].price = amount;\r\n        AuctionData[nftAddr][nftID].auctType = 2;\r\n\r\n    }\r\n\r\n    function buyRegular(address nftAddr, uint256 nftID)public{\r\n        require(AuctionData[nftAddr][nftID].auctType == 2);\r\n        require(UserData[msg.sender].own[nftAddr][nftID] != true, \"you already own this NFT\"); //must not be owner\r\n        require(AuctionData[nftAddr][nftID].price <= UserData[msg.sender].balance);\r\n        UserData[msg.sender].balance -= AuctionData[nftAddr][nftID].price;\r\n        UserData[AuctionData[nftAddr][nftID].oldOwner].balance += AuctionData[nftAddr][nftID].price;\r\n        UserData[AuctionData[nftAddr][nftID].oldOwner].own[nftAddr][nftID] = false;\r\n        UserData[msg.sender].own[nftAddr][nftID] = true;\r\n        AuctionData[nftAddr][nftID].auctType = 0;\r\n\r\n    }\r\n/**\r\n* @dev\r\n* getter functions for testing.\r\n */    \r\n    function getMarketBalance() public view returns(uint256){\r\n        return UserData[msg.sender].balance;\r\n    }\r\n    function getUserNftBalance(address tokenAddr, uint256 tokenId) public view returns(bool){\r\n        return UserData[msg.sender].own[tokenAddr][tokenId];\r\n    }\r\n    function getAuctionInfoPrice(address tokenAddr,uint256 tokenId)public view returns(uint256){\r\n        return(AuctionData[tokenAddr][tokenId].price);\r\n    }\r\n    function getAuctionInfoTimer(address tokenAddr,uint256 tokenId)public view returns(uint256){\r\n        return(AuctionData[tokenAddr][tokenId].timer);\r\n    }\r\n    function getAuctionInfoWinner(address tokenAddr,uint256 tokenId)public view returns(address){\r\n        return(AuctionData[tokenAddr][tokenId].winner);\r\n    }\r\n    function getAuctionInfoOldOwner(address tokenAddr,uint256 tokenId)public view returns(address){\r\n        return(AuctionData[tokenAddr][tokenId].oldOwner);\r\n    }\r\n    \r\n    \r\n}",
  "sourcePath": "C:\\Users\\eren9\\Desktop\\NFTmarketSabanc\\contracts\\NFTmarket.sol",
  "compiler": {
    "name": "solc",
    "version": "0.8.10+commit.fc410830.Emscripten.clang"
  },
  "schemaVersion": "3.4.4",
  "updatedAt": "2022-07-16T13:12:48.014Z",
  "networkType": "ethereum",
  "devdoc": {
    "kind": "dev",
    "methods": {
      "bid(address,uint256,uint256)": {
        "details": " bids on desired NFT, price must increase by 10 SUcoins otherwise it is not valid. owner is allowed to bid on their own NFT."
      },
      "deposit(address,uint256)": {
        "details": " deposit function for NFT's,  requires the sender to be the owner of the NFT, it also requires the owner to approve the NFT transfer to this contract  beforehand."
      },
      "depositBalance(uint256)": {
        "details": " Deposit function for SuCoin,  requires the sender to send the balance they enter."
      },
      "endAuction(address,uint256)": {
        "details": " finishes an auction, can be called by anyone,  winner receives the NFT, old owner receives the current bid."
      },
      "getMarketBalance()": {
        "details": "getter functions for testing."
      },
      "sellRegular(address,uint256,uint256)": {
        "details": "regular sale part"
      },
      "startAuction(address,uint256,uint256)": {
        "details": " Starts auction for desired NFT, can only be started if the NFT is deposited to the contract. the owner can set a starting price. timer sets the auctions timer, default is 1 minute for testing purposes. ONE BIG ISSUE !!!! can start auction right after the auction has finished, making the last auction useless. and basically making a user lose money. (adding a require statement to fix.) maybe a feature tho ??"
      },
      "withdraw(address,uint256)": {
        "details": " withdraw function for NFT's,  requires the sender to be the owner of the NFT ON THE MARKET, "
      },
      "withdrawBalance(uint256)": {
        "details": " Withdraw function for SuCoin,   requires the sender to have the balance in the market. "
      }
    },
    "version": 1
  },
  "userdoc": {
    "kind": "user",
    "methods": {},
    "version": 1
  }
}